S00B000050574D2E7372656325
S11300000C942A000C9447000C9447000C9447006D
S11300100C9469060C9447000C9447000C94090650
S11300200C9447000C9447000C94B1050C944700C1
S11300300C9447000C9447000C9447000C94470020
S11300400C9447000C9447000C9447000C94470010
S11300500C94470011241FBECFE5D8E0DEBFCDBF0E
S113006012E0A0E6B0E0EEECF7E102C005900D92DC
S1130070A038B107D9F722E0A0E8B2E001C01D9290
S1130080A13AB207E1F70E9449000C94E50B0C94E5
S11300900000CF93DF93CDB7DEB7C153D1400FB685
S11300A0F894DEBF0FBECDBF42E068E081E00E945D
S11300B0580440E060E483E00E94580443E068E6AA
S11300C070E080E00E94F00443E060E070E081E0D2
S11300D00E94F00480E00E94290560E880E00E940C
S11300E01B050E9428020E944D020E944D02BE017F
S11300F06E5F7F4FCE0101960E943B052FE38DE09A
S113010093E0215080409040E1F700C000006A81F4
S11301107B818C819D810E94CF079B01AC0160E0B3
S113012070E080E89FE30E942E0720E034E244E779
S113013059E40E945D084B015C0189811F928F93F1
S113014080E492E09F938F937E0126E0E20EF11CFF
S1130150FF92EF920E94FB088D818F938C818F9385
S11301608B818F938A818F9303E412E01F930F9303
S11301706E018AE6C80ED11CDF92CF920E94FB0862
S1130180C501B4010E94A0079F938F937F936F933F
S11301901F930F938E0102531F4F1F930F930E94BF
S11301A0FB0847E452E060E080E00E946E02A60192
S11301B060E480E00E946E0242E552E064E680E082
S11301C00E946E0245E552E060E081E00E946E020A
S11301D0A70160E481E00E946E0241E652E06DE412
S11301E081E00E946E0243E652E060E082E00E94F9
S11301F06E02A80160E482E00E946E0249E652E0C9
S113020064E682E00E946E0289819DEC899FE12C64
S11302101124E694E694E6948AE0F82EFE180FB6CC
S1130220F894DEBF0FBECDBF10E056C04CE652E0DE
S1130230612F87E00E946E021B5F9FE926E881E040
S1130240915020408040E1F700C000000F5F01C0E2
S113025000E00F1558F34EE652E0612F86E00E944D
S11302606E024EE652E0612F87E00E946E021B5F31
S11302709FE926E881E0915020408040E1F700C0EA
S1130280000000E011C04CE652E0612F85E00E94BE
S11302906E021B5F9FE926E881E091502040804078
S11302A0E1F700C000000F5F0E1568F34EE652E060
S11302B0612F86E00E946E024EE652E0612F87E0D5
S11302C00E946E029FE926E881E091502040804020
S11302D0E1F700C00000165F11230CF0B9CF05CF81
S11302E0CF93C82F482F417061E080E00E949104B1
S11302F0C1FB442740F962E080E00E949104C2FB04
S1130300442740F964E080E00E949104C3FB442741
S113031040F968E080E00E949104C4FB442740F95E
S113032060E180E00E949104C5FB442740F960E24B
S113033080E00E949104C6FB442740F960E480E019
S11303400E9491044C2F441F4427441F60E880E01E
S11303500E94910440E061E082E00E94910440E048
S113036062E082E00E94910441E064E082E00E9445
S1130370910481EE94E00197F1F700C0000040E0A1
S113038064E082E00E94910481EE94E00197F1F729
S113039000C00000CF910895CF93C82F482F41701B
S11303A061E080E00E949104C1FB442740F962E0CF
S11303B080E00E949104C2FB442740F964E080E09D
S11303C00E949104C3FB442740F968E080E00E9446
S11303D09104C4FB442740F960E180E00E94910449
S11303E0C5FB442740F960E280E00E949104C6FB0B
S11303F0442740F960E480E00E9491044C2F441F9C
S11304004427441F60E880E00E94910441E061E0D9
S113041082E00E94910440E062E082E00E94910444
S113042041E064E082E00E94910481EE94E001974F
S1130430F1F700C0000040E064E082E00E94910413
S113044081EE94E00197F1F700C00000CF91089588
S113045042E06FE382E00E94580442E06FEF80E0E4
S11304600E94580441E068E382E00E94910487E816
S113047093E10197F1F700C000008EE30E94700140
S113048080E40E94700188EB0E94700180EC0E945D
S113049070018FE30E9470010895CF93DF9341E0D0
S11304A060E382E00E949104D0E00DC088EB8D0FE0
S11304B00E947001C0E004C080E00E94CC01CF5FC4
S11304C0C034D0F3DF5FD83088F380E40E94700139
S11304D088EB0E947001DF91CF9108952F923F9293
S11304E04F925F926F927F928F929F92AF92BF9240
S11304F0CF92DF92EF92FF920F931F93CF93DF93EC
S1130500CDB7DEB72B970FB6F894DEBF0FBECDBFC5
S1130510D62E58874F83062F10E0005C1F4F282FDC
S113052030E03E832D8328543F4F3B872A8779014F
S11305303FE3361788F041E060E182E00E949104D5
S113054040E060E282E00E949104802F0E947001EA
S113055080E48D198C8314C04FE3461788F440E07F
S113056060E182E00E94910441E060E282E00E9446
S1130570910480EC800F0E94700180E88D198C83B7
S11305808A8589870E947001A12C412C312C0F2E61
S1130590FFE35F2EF02D612C712C91E09A831B8276
S11305A062C1EA818E2F90E09C01220F331F220F3B
S11305B0331F820F931FFC812F2F30E08217930784
S11305C084F060E182E00E94B10460E282E00E9473
S11305D0B10480E40E94700189850E94700128ECB6
S11305E02C833A813F5F3A838D819E8191958195D9
S11305F091099695982F8827979587956C0145E0E2
S1130600C41A4CEFD40AC614D70408F435C1F40153
S11306108081803209F01EC123C19301210F311D55
S11306203B872A8720E030E040E05FE36A2D742DA9
S1130630832D952D0E94C2066983272EB82E092F7B
S11306400E94A00730E8639FB00111248A859B852E
S11306508617970721F5153009F402C180E40E943A
S1130660700160E182E00E94B10460E282E00E94D5
S1130670B104B70180E090E00E94CF072A2D342D09
S1130680432D552D0E94C2060E94A007862F0E946A
S11306907001A980422C3B2C502E6A847B84C614A2
S11306A0D70408F4DDC0F4018081803209F447C026
S11306B010E090C0F401808190E08097FC01EE0F7F
S11306C0FF1FEE0FFF1FE80FF91FE05AFF4FE10F66
S11306D0F11D80810E94CC01FFEF6F1A7F0AC301D4
S11306E08F739927892B49F560E182E00E94B10458
S11306F060E282E00E94B10480E40E947001B701CC
S113070080E090E00E94CF072A2D342D432D552DF3
S11307100E94C2060E94A007862F0E94700120E05A
S113072030E040E05FE36A2D742D832D952D0E9407
S1130730C206A62E472E382E592E1F5F01C010E088
S1130740153008F4B7CF7B866A8680C0F4018081B7
S113075090E08097FC01EE0FFF1FEE0FFF1FE80FE4
S1130760F91FE05AFF4FE10FF11D80810E94CC0177
S1130770FFEF6F1A7F0AC3018F739927892B49F5FD
S113078060E182E00E94B10460E282E00E94B10470
S113079080E40E947001B70180E090E00E94CF07DE
S11307A02A2D342D432D552D0E94C2060E94A007E8
S11307B0862F0E94700120E030E040E05FE36A2D64
S11307C0742D832D952D0E94C206A62E472E382EF9
S11307D0592E1F5F153008F4B9CF80E00E94CC0178
S11307E093012F5F3F4F3B872A8732E0630E711CD2
S11307F04FE364227724672849F560E182E00E9490
S1130800B10460E282E00E94B10480E40E947001BD
S1130810B70180E090E00E94CF072A2D342D432DAC
S1130820552D0E94C2060E94A007862F0E947001C7
S113083020E030E040E05FE36A2D742D832D952D98
S11308400E94C206A62E472E382E592E1F5F6A8498
S11308507B8403C0BB24B3941B2D163008F4DDCE77
S11308608B818F5F8B838F8098849B81890E911CF1
S1130870F4018081811195CE80E40E9470012B9651
S11308800FB6F894DEBF0FBECDBFDF91CF911F919D
S11308900F91FF90EF90DF90CF90BF90AF909F901B
S11308A08F907F906F905F904F903F902F9008951E
S11308B0413091F018F0423039F10895E82FF0E01A
S11308C0EE0FFF1FE858FD4F0190F081E02D80816D
S11308D0609568236083089590E0880F991FFC0158
S11308E0E858FD4F0190F081E02D2081362F30959E
S11308F023232083FC01E059FD4F0190F081E02D7A
S11309008081682B60830895E82FF0E0EE0FFF1FCD
S1130910E858FD4F0190F081E02D8081682B6083C1
S11309200895442319F0413079F00895E82FF0E058
S1130930EE0FFF1FE059FD4F0190F081E02D808103
S11309406095682360830895E82FF0E0EE0FFF1FA1
S1130950E059FD4F0190F081E02D8081682B608388
S11309600895E82FF0E0EE0FFF1FE059FD4F0190CE
S1130970F081E02D8081682760830895813059F0EB
S113098018F0823091F0089512BE93B78091A002BE
S1130990892B83BF08951DBC1CBC8EB59FB52091C7
S11309A09F02822B9FBD8EBD089514BC95B5809186
S11309B09E02892B85BD0895813041F018F0823064
S11309C059F0089583B7887F83BF08958EB59FB586
S11309D0887F9FBD8EBD089585B5887F85BD0895A8
S11309E0813081F018F08230D1F0089568367105B5
S11309F029F4433318F0425360E670E063BF409338
S1130A00A00208956836710529F4433318F042535F
S1130A1060E670E07FBD6EBD40939F020895683626
S1130A20710529F4433318F0425360E670E065BD64
S1130A3040939E020895813031F018F0823039F0ED
S1130A4008956CBF089570E07BBD6ABD089563BDD1
S1130A500895813041F018F0823049F0089580E023
S1130A600E94BE04089581E00E94BE04089582E0BD
S1130A700E94BE0408958F929F92AF92BF92EF920C
S1130A80FF920F931F93CF93DF9300D000D000D039
S1130A90CDB7DEB77C018B01FE01319686E0DF0124
S1130AA01D928A95E9F78EB59FB580649FBD8EBD72
S1130AB081E00E94BE0480E01BC008B605FEFDCFA5
S1130AC0E82FF0E026B537B5EE0FFF1F41E050E008
S1130AD04C0F5D1FE40FF51F3183208398B790629C
S1130AE098BF2EB53FB550E425273FBD2EBD8F5F7F
S1130AF0833018F381E00E94DC042B813C818981DE
S1130B009A81281B390B8D809E80881A990AA4E645
S1130B10B0E00E94EC08A12CB12CA50194010E9424
S1130B20CA08D7012C9360E970ED83E090E0A50139
S1130B3094010E94CA08F8012083318342835383BD
S1130B4026960FB6F894DEBF0FBECDBFDF91CF91CE
S1130B501F910F91FF90EF90BF90AF909F908F9057
S1130B6008951F920F920FB60F9211242F933F9363
S1130B704F935F936F937F938F939F93AF93BF93A1
S1130B80EF93FF938091880290918902A0918A0249
S1130B90B0918B020196A11DB11D809388029093A0
S1130BA08902A0938A02B0938B0240919A025091D9
S1130BB09B0260919C0270919D0284179507A60781
S1130BC0B707B1F4E0919002F0919102309781F06F
S1130BD0452B462B472B61F40995109288021092FD
S1130BE0890210928A0210928B0280E00E94DC0437
S1130BF0FF91EF91BF91AF919F918F917F916F91F1
S1130C005F914F913F912F910F900FBE0F901F90C6
S1130C1018951F920F920FB60F9211242F933F93A2
S1130C204F935F936F937F938F939F93AF93BF93F0
S1130C30EF93FF938091840290918502A0918602A4
S1130C40B09187020196A11DB11D809384029093F7
S1130C508502A0938602B093870240919A02509134
S1130C609B0260919C0270919D0284179507A607D0
S1130C70B707F1F4E0918E02F0918F023097C1F042
S1130C808091960290919702A0919802B091990256
S1130C90892B8A2B8B2B61F4099510928402109274
S1130CA08502109286021092870281E00E94DC0481
S1130CB0FF91EF91BF91AF919F918F917F916F9130
S1130CC05F914F913F912F910F900FBE0F901F9006
S1130CD018951F920F920FB60F9211242F933F93E2
S1130CE04F935F936F937F938F939F93AF93BF9330
S1130CF0EF93FF938091800290918102A0918202F0
S1130D00B09183020196A11DB11D8093800290933E
S1130D108102A0938202B093830240919202509187
S1130D209302609194027091950284179507A60727
S1130D30B707B1F4E0918C02F0918D02309781F005
S1130D40452B462B472B61F4099510928002109293
S1130D508102109282021092830282E00E94DC04DB
S1130D60FF91EF91BF91AF919F918F917F916F917F
S1130D705F914F913F912F910F900FBE0F901F9055
S1130D8018955058BB27AA270E94D9060C9423080B
S1130D900E94150838F00E941C0820F039F49F3F87
S1130DA019F426F40C9412080EF4E095E7FB0C9465
S1130DB00C08E92F0E94340858F3BA176207730726
S1130DC08407950720F079F4A6F50C9456080EF4E0
S1130DD0E0950B2EBA2FA02D0B01B90190010C0147
S1130DE0CA01A0011124FF27591B99F0593F50F45F
S1130DF0503E68F11A16F040A22F232F342F4427B7
S1130E00585FF3CF469537952795A795F0405395AE
S1130E10C9F77EF41F16BA0B620B730B840BBAF07E
S1130E209150A1F0FF0FBB1F661F771F881FC2F7E9
S1130E300EC0BA0F621F731F841F48F487957795FD
S1130E406795B795F7959E3F08F0B0CF9395880FB7
S1130E5008F09927EE0F9795879508950E94420709
S1130E600C9423080E941C0858F00E94150840F0B6
S1130E7029F45F3F29F00C940C0851110C94570885
S1130E800C9412080E94340868F39923B1F3552393
S1130E9091F3951B550BBB27AA2762177307840789
S1130EA038F09F5F5F4F220F331F441FAA1FA9F31F
S1130EB035D00E2E3AF0E0E832D091505040E6950D
S1130EC0001CCAF72BD0FE2F29D0660F771F881F6E
S1130ED0BB1F261737074807AB07B0E809F0BB0B61
S1130EE0802DBF01FF2793585F4F3AF09E3F510575
S1130EF078F00C940C080C9457085F3FE4F3983E88
S1130F00D4F3869577956795B795F7959F5FC9F75D
S1130F10880F911D9695879597F90895E1E0660FDE
S1130F20771F881FBB1F621773078407BA0720F057
S1130F30621B730B840BBA0BEE1F88F7E0950895C0
S1130F400E943C0888F09F5798F0B92F9927B75111
S1130F50B0F0E1F0660F771F881F991F1AF0BA9559
S1130F60C9F714C0B13091F00E945608B1E0089559
S1130F700C945608672F782F8827B85F39F0B93F4B
S1130F80CCF3869577956795B395D9F73EF490950C
S1130F908095709561957F4F8F4F9F4F0895E8948A
S1130FA009C097FB3EF490958095709561957F4FAD
S1130FB08F4F9F4F9923A9F0F92F96E9BB2793955B
S1130FC0F695879577956795B795F111F8CFFAF46B
S1130FD0BB0F11F460FF1BC06F5F7F4F8F4F9F4F9C
S1130FE016C0882311F096E911C0772321F09EE8FA
S1130FF0872F762F05C0662371F096E8862F70E060
S113100060E02AF09A95660F771F881FDAF7880F39
S11310109695879597F9089597F99F6780E870E00A
S113102060E008959FEF80EC089500240A9416165A
S1131030170618060906089500240A9412161306C2
S1131040140605060895092E0394000C11F4882350
S113105052F0BB0F40F4BF2B11F460FF04C06F5F6C
S11310607F4F8F4F9F4F089557FD9058440F551F42
S113107059F05F3F71F04795880F97FB991F61F016
S11310809F3F79F087950895121613061406551F8D
S1131090F2CF4695F1DF08C0161617061806991FF9
S11310A0F1CF86957105610508940895E894BB27EE
S11310B066277727CB0197F908950E9470080C944E
S11310C023080E94150838F00E941C0820F095237C
S11310D011F00C940C080C94120811240C94570869
S11310E00E94340870F3959FC1F3950F50E0551F8B
S11310F0629FF001729FBB27F00DB11D639FAA2769
S1131100F00DB11DAA1F649F6627B00DA11D661FB7
S1131110829F2227B00DA11D621F739FB00DA11DD8
S1131120621F839FA00D611D221F749F3327A00D92
S1131130611D231F849F600D211D822F762F6A2F2E
S113114011249F5750409AF0F1F088234AF0EE0F93
S1131150FF1FBB1F661F771F881F91505040A9F7C0
S11311609E3F510580F00C940C080C9457085F3F87
S1131170E4F3983ED4F3869577956795B795F795FC
S1131180E7959F5FC1F7FE2B880F911D9695879574
S113119097F90895A1E21A2EAA1BBB1BFD010DC0ED
S11311A0AA1FBB1FEE1FFF1FA217B307E407F50713
S11311B020F0A21BB30BE40BF50B661F771F881FEF
S11311C0991F1A9469F760957095809590959B0185
S11311D0AC01BD01CF010895A29FB001B39FC0012E
S11311E0A39F700D811D1124911DB29F700D811D4F
S11311F01124911D0895AEE0B0E0E1E0F9E00C9413
S1131200BC0B0D891E8986E08C831A8309838FEFBA
S11312109FE79E838D83AE01475E5F4F6F89788D14
S1131220CE0101960E941D09EF81F885E00FF11FA0
S113123010822E96E4E00C94D80BABE0B0E0E3E22D
S1131240F9E00C94AE0B6C017B018A01FC0117825E
S11312501682838181FFCCC1CE0101963C01F60147
S11312609381F70193FD859193FF81917F018823F9
S113127009F4BAC1853239F493FD859193FF8191C4
S11312807F01853229F4B60190E00E94140BE7CF68
S1131290912C212C312CFFE1F315D8F08B3279F00D
S11312A038F4803279F08332A1F4232D20611DC0FB
S11312B08D3261F0803369F4232D216016C0832DB3
S11312C08260382EE32DE4603E2E2AC0F32DF860B0
S11312D01DC037FC2DC020ED280F2A3040F08E327F
S11312E0B9F436FC81C1232D2064322E19C036FE98
S11312F006C08AE0989E200D1124922E11C0EAE0C7
S11313002E9E200D1124222EF32DF0623F2E08C0B4
S11313108C3621F4832D8068382E02C0883641F43F
S1131320F70193FD859193FF81917F018111B3CFE3
S1131330982F9F7D9554933028F40C5F1F4F9FE3A3
S113134099830DC0833631F0833771F0833509F00A
S113135059C021C0F801808189830E5F1F4F882402
S11313608394912C530113C02801F2E04F0E511CB9
S1131370F801A080B18036FE03C0692D70E002C080
S11313806FEF7FEFC5010E94090B4C018201F32D21
S1131390FF773F2E16C0280122E0420E511CF801AF
S11313A0A080B18036FE03C0692D70E002C06FEFEB
S11313B07FEFC5010E94FE0A4C01F32DF0683F2E19
S11313C0820133FC1BC0822D90E088169906B0F48C
S11313D0B60180E290E00E94140B2A94F4CFF50148
S11313E037FC859137FE81915F01B60190E00E9440
S11313F0140B21102A9421E0821A9108811491047B
S113140071F7E8C0843611F0893641F5F80137FEEA
S113141007C060817181828193810C5F1F4F08C076
S113142060817181072E000C880B990B0E5F1F4F92
S1131430F32DFF763F2E97FF09C090958095709508
S113144061957F4F8F4F9F4FF0683F2E2AE030E029
S1131450A3010E94500B882E861845C0853731F4AD
S1131460232D2F7EB22E2AE030E025C0932D997FC4
S1131470B92E8F36C1F018F4883579F0B5C08037AD
S113148019F0883721F0B0C0E92FE061BE2EB4FE18
S11314900DC0FB2DF460BF2E09C034FE0AC0292FF5
S11314A02660B22E06C028E030E005C020E130E01E
S11314B002C020E132E0F801B7FE07C0608171810B
S11314C0828193810C5F1F4F06C06081718180E02F
S11314D090E00E5F1F4FA3010E94500B882E8618C8
S11314E0FB2DFF773F2E36FE0DC0232D2E7FA22E1F
S11314F0891458F434FE0BC032FC09C0832D8E7E4F
S1131500A82E05C0B82CA32C03C0B82C01C0B92C3C
S1131510A4FE0FC0FE01E80DF11D8081803321F48B
S11315209A2D997EA92E09C0A2FE06C0B394B39445
S113153004C08A2D867809F0B394A3FC11C0A0FEE0
S113154006C0B21488F4280C922C9B180EC0B21456
S113155060F4B60180E290E00E94140BB394F7CFDC
S1131560B21418F42B1802C0982C212CA4FE10C01D
S1131570B60180E390E00E94140BA2FE17C0A1FC08
S113158003C088E790E002C088E590E0B6010CC093
S11315908A2D867859F0A1FE02C08BE201C080E258
S11315A0A7FC8DE2B60190E00E94140B891438F474
S11315B0B60180E390E00E94140B9A94F7CF8A94CA
S11315C0F301E80DF11D8081B60190E00E94140B37
S11315D08110F5CF222009F442CEB60180E290E0DA
S11315E00E94140B2A94F6CFF6018681978102C0DB
S11315F08FEF9FEF2B96E2E10C94CA0BFC01059050
S1131600615070400110D8F7809590958E0F9F1F00
S11316100895FC016150704001900110D8F7809545
S113162090958E0F9F1F08950F931F93CF93DF9371
S1131630FB01238121FD03C08FEF9FEF2CC022FF0C
S113164016C046815781248135814217530744F4DB
S1131650A081B1819D012F5F3F4F318320838C9303
S1131660268137812F5F3F4F3783268314C08B0138
S1131670EC01FB010084F185E02D0995892BE1F64D
S1131680D80116968D919C911797019617969C9365
S11316908E931697CE01DF91CF911F910F910895EC
S11316A0FA01AA27283051F1203181F1E8946F938F
S11316B06E7F6E5F7F4F8F4F9F4FAF4FB1E03ED035
S11316C0B4E03CD0670F781F891F9A1FA11D680FD3
S11316D0791F8A1F911DA11D6A0F711D811D911D06
S11316E0A11D20D009F468943F912AE0269F11247B
S11316F03019305D3193DEF6CF010895462F4770DF
S1131700405D4193B3E00FD0C9F7F6CF462F4F7039
S1131710405D4A3318F0495D31FD4052419302D097
S1131720A9F7EACFB4E0A69597958795779567953D
S1131730BA95C9F700976105710508959B01AC013D
S11317400A2E06945795479537952795BA95C9F764
S1131750620F731F841F951FA01D08952F923F923F
S11317604F925F926F927F928F929F92AF92BF92AD
S1131770CF92DF92EF92FF920F931F93CF93DF9359
S1131780CDB7DEB7CA1BDB0B0FB6F894DEBF0FBEB6
S1131790CDBF09942A88398848885F846E847D8403
S11317A08C849B84AA84B984C884DF80EE80FD8005
S11317B00C811B81AA81B981CE0FD11D0FB6F8947B
S11117C0DEBF0FBECDBFED010895F894FFCF3C
S11317CE000000000000005F000000070007001486
S11317DE7F147F14242A7F2A122313086462364945
S11317EE5522500005030000001C22410000412236
S11317FE1C0014083E081408083E08080050300067
S113180E00080808080800606000002010080402A0
S113181E3E5149453E00427F4000426151494621B6
S113182E41454B311814127F1027454545393C4A22
S113183E4949300171090503364949493606494972
S113184E291E0036360000005636000008142241C8
S113185E0014141414140041221408020151090630
S113186E324979413E7E1111117E7F494949363EF6
S113187E414141227F4141221C7F494949417F090F
S113188E0909013E4149497A7F0808087F00417FD2
S113189E41002040413F017F081422417F404040D7
S11318AE407F020C027F7F0408107F3E4141413E7F
S11318BE7F090909063E4151215E7F0919294646D1
S11318CE4949493101017F01013F4040403F1F20FA
S11318DE40201F3F4038403F6314081463070870CC
S11318EE08076151494543007F4141000204081035
S11318FE200041417F000402010204404040404068
S113190E000102040020545454787F48444438386B
S113191E44444420384444487F3854545418087E70
S113192E0901020C5252523E7F0804047800447D91
S113193E40002040443D007F1028440000417F4079
S113194E007C041804787C08040478384444443831
S113195E7C14141408081414187C7C080404084815
S113196E54545420043F4440203C4040207C1C20CE
S113197E40201C3C4030403C44281028440C50501D
S113198E503C4464544C44000836410000007F002F
S113199E00004136080010080810087846414678C1
S11319AE256400256C64004672657175656E6379F5
S11319BE3A00487A0044757479204379636C653A29
S11319CE00250054696D653A007573005F007C0054
S11319DE3B003800350032003A0037003400310045
S9030000FC
